:020000020000FC
:100000000AC07CC0189518951895189569C07DC0D0
:100010001895189518950FED0DBF17E00FEF07BB5A
:10002000222728BB002701BB04E302BB03E005BF76
:1000300000E40BBF07E209B900E90AB9C49AE0E09D
:10004000F0E0789400C009B701FDFDCFE030D9F3AE
:10005000099409B701FDF7CFE030A9F30994C398DB
:10006000C298C19AC09AE6E3F0E033C0C098C29A41
:10007000EBE3F0E02EC0C198C39AE0E4F0E029C0C1
:10008000C298C09AE5E4F0E024C000B3042309F06C
:10009000E6CFE0E0F0E0D7CFC39AC298C198C09A0B
:1000A000E3E5F0E016C0C098C29AE8E5F0E011C0C0
:1000B000C398C19AEDE5F0E00CC0C298C09AE2E6A0
:1000C000F0E007C000B3042309F4E6CFE0E0F0E07D
:1000D000BACF05E003BF02E009BF04EC02BFB3CF13
:1000E0000FB70F9300E003BF00E009BF0F910FBFF0
:1000F0001895000040E1D0CF40E2B1CFC69840E172
:1001000000B378940423C1F7F5CF0CB10535B1F3F2
:04011000C69A1895DE
:00000001FF
