:020000020000FC
:100000000AC01895189518951895B4C05AC06BC0B9
:100010001895189518950FED0DBF0FEF07BB222708
:1000200028BB002701BB04E302BB61D0C49AE0E017
:10003000F0E0789450C009B701FDFDCFE030D9F36E
:100040000994C398C298C19AC09AE8E2F0E033C01C
:10005000C098C29AEDE2F0E02EC0C198C39AE2E3E4
:10006000F0E029C0C298C09AE7E3F0E024C000B3F2
:10007000042309F0E6CFE0E0F0E0DDCFC39AC298B8
:10008000C198C09AE5E4F0E016C0C098C29AEAE4CC
:10009000F0E011C0C398C19AEFE4F0E00CC0C29840
:1000A000C09AE4E5F0E007C000B3042309F4E6CF0A
:1000B000E0E0F0E0C0CF05E003BF21D000EB02BFDD
:1000C000BACF0FB70F9300E003BF1DD00F910FBF42
:1000D000189540E1D3CF40E2B4CF40E100B378942B
:1000E0000423C9F7F6CF5CB15535B9F3189503E38E
:1000F00009B900E90AB9089500E00AB9089509B7F5
:10010000026009BF089509B70D7F09BF089509B7B7
:10011000006809BF089509B70F7709BF089502E085
:1001200005BF00E40BBFE3DF089503E005BF00E473
:100130000BBFE2DF089500E00BBF089505B7037021
:10014000023031F005B70370033039F024D0189530
:1001500060E0F1DFD1DF06D0189561E0ECDFCCDFA5
:1001600001D0189505E00EBD0BEF0DBD00E50CBDEF
:10017000CEDF0895603021F050B3543041F018952F
:1001800050B3503009F01895C6DFCFDF1895C3DFA4
:10019000C6DF7894A2CF00B30470043011F0C5DF3D
:0601A0000895BDDF089583
:00000001FF
