:020000020000FC
:100000000AC0A7C0189518951895ABC059C068C00C
:100010001895189518950FED0DBF0FEF07BB222708
:1000200028BB002701BB04E302BB84D0C49AE0E0F4
:10003000F0E0789400C009B701FDFDCFE030D9F3BE
:10004000099471E036D0E6E2F0E038C072E031D0D9
:10005000EBE2F0E033C074E02CD0E0E3F0E02EC03F
:1000600078E027D0E5E3F0E029C000B3042309F0ED
:10007000E8CFE0E0F0E01DD0DECF71E01AD0E2E49E
:10008000F0E01CC078E015D0E7E4F0E017C074E0C1
:1000900010D0ECE4F0E012C072E00BD0E1E5F0E04B
:1000A0000DC000B3042309F4E8CFE0E0F0E001D094
:1000B000C2CF08E1007F072B08BB089521D0BBCF3A
:1000C0000FB70F9325D00F910FBF189540E1D5CFF3
:1000D00040E2B7CF40E100B378940423C9F7F6CFEC
:1000E0000FB70F935CB15535A9F30F910FBF18955A
:1000F00003E309B900E90AB9089500E00AB90895CF
:1001000005E003BF00E602BF09B7026009BF08951A
:1001100009B70D7F09BF089505E00EBD0FEF0DBDB6
:1001200006E00CBD09B7006809BF089509B70F774D
:1001300009BF089502E005BF00E40BBFD9DF0895B1
:1001400003E005BF00E40BBFD8DF089500E00BBF5C
:1001500008950FB70F93FADFD0DFDEDF0F910FBFE7
:100160001895E4DFE7DF7894B5CFB4CF00B304701F
:0C017000043011F0E5DF0895DDDF089594
:00000001FF
