:020000020000FC
:100000000AC07AC0189518951895189567C07AC0D7
:100010001895189518950FED0DBF17E00FEF07BB5A
:10002000222728BB002701BB04E302BB03E005BF76
:1000300000E40BBF03E309B9C49AE0E0F0E0789470
:1000400000C009B701FDFDCFE030D9F3099409B72D
:1000500001FDF7CFE030A9F30994C398C298C19A83
:10006000C09AE4E3F0E033C0C098C29AE9E3F0E05C
:100070002EC0C198C39AEEE3F0E029C0C298C09A9E
:10008000E3E4F0E024C000B3042309F0E6CFE0E0AD
:10009000F0E0D7CFC39AC298C198C09AE1E5F0E0EA
:1000A00016C0C098C29AE6E5F0E011C0C398C19AA4
:1000B000EBE5F0E00CC0C298C09AE0E6F0E007C0C3
:1000C00000B3042309F4E6CFE0E0F0E0BACF05E0A6
:1000D00003BF02E009BF0CE902BFB3CF0FB70F9314
:1000E00000E003BF00E009BF0F910FBF18950000AB
:1000F00040E1D0CF40E2B1CF40E100B37894042397
:0C010000C9F7F6CF5CB15535B9F318957E
:00000001FF
