:020000020000FC
:100000000AC09CC0189518951895B4C05BC06BC009
:100010001895189518950FED0DBF0FEF07BB222708
:1000200028BB002701BB04E302BB61D0B4D0C49A53
:10003000E0E0F0E0789450C009B701FDFDCFE0307A
:10004000D9F30994C398C298C19AC09AE9E2F0E042
:1000500033C0C098C29AEEE2F0E02EC0C198C39AB5
:10006000E3E3F0E029C0C298C09AE8E3F0E024C0DE
:1000700000B3042309F0E6CFE0E0F0E0DDCFC39A5F
:10008000C298C198C09AE6E4F0E016C0C098C29A3F
:10009000EBE4F0E011C0C398C19AE0E5F0E00CC0D9
:1000A000C298C09AE5E5F0E007C000B3042309F464
:1000B000E6CFE0E0F0E0C0CF05E003BF20D000EBEA
:1000C00002BFBACF0FB70F9300E003BF1CD00F9150
:1000D0000FBF189540E1D3CF40E2B4CF40E100B369
:1000E0000423D1F7F7CF5CB15535C1F3189503E37D
:1000F00009B900E90AB9089500E00AB9089509B7F5
:10010000026009BF089509B70D7F09BF089509B7B7
:10011000006809BF089509B70F7709BF089502E085
:1001200005BF00E40BBFE3DF089503E005BF00E473
:100130000BBFE2DF089500E00BBF089505B7037021
:10014000023031F005B70370033039F024D0189530
:1001500060E0F1DFD1DF06D0189561E0ECDFCCDFA5
:1001600001D0189505E00EBD0FEF0DBD06E00CBDEA
:10017000CEDF0895603021F050B3543041F018952F
:1001800050B3503009F01895C6DFCFDF1895C3DFA4
:10019000C6DF7894A3CF00B30470043011F0C5DF3C
:0601A0000895BDDF089583
:00000001FF
