:020000020000FC
:100000000AC0A2C0189518951895B4C056C067C00C
:100010001895189518950FED0DBF0FEF07BB222708
:1000200028BB002701BB04E302BB7FD0C49AE0E0F9
:10003000F0E0789400C009B701FDFDCFE030D9F3BE
:100040000994C398C298C19AC09AE8E2F0E033C01C
:10005000C098C29AEDE2F0E02EC0C198C39AE2E3E4
:10006000F0E029C0C298C09AE7E3F0E024C000B3F2
:10007000042309F0E6CFE0E0F0E0DDCFC39AC298B8
:10008000C198C09AE5E4F0E016C0C098C29AEAE4CC
:10009000F0E011C0C398C19AEFE4F0E00CC0C29840
:1000A000C09AE4E5F0E007C000B3042309F4E6CF0A
:1000B000E0E0F0E0C0CF1FD0BECF0FB70F9300E05D
:1000C00003BF21D00F910FBF189540E1D7CF40E279
:1000D000B8CF40E100B378940423C9F7F6CF5CB100
:1000E0005535B9F3189503E309B900E90AB908953C
:1000F00000E00AB9089505E003BF00EB02BF09B7AD
:10010000026009BF089509B70D7F09BF089505E092
:100110000EBD0BEF0DBD00E50CBD09B7006809BFB2
:10012000089509B70F7709BF089502E005BF00E4FD
:100130000BBFD9DF089503E005BF00E40BBFD8DF94
:10014000089500E00BBF089505B70370023031F049
:1001500005B70370033039F01ED0189560E0F1DF69
:10016000C7DF06D0189561E0ECDFC2DF01D018953B
:10017000CEDF0895603021F050B3543041F018952F
:1001800050B3503009F01895CCDFD5DF1895C9DF92
:10019000CCDF78949ECF00B30470043011F0CBDF35
:0601A0000895C3DF08957D
:00000001FF
