:020000020000FC
:100000000AC06EC018951895189518955BC018957C
:100010001895189518950FED0DBF17E00FEF07BB5A
:10002000222728BB002701BB04E302BB7894C49AB3
:10003000E0E0F0E051C009B701FDFDCFE030D9F3B9
:100040000994C398C298C19AC09AE8E2F0E033C01C
:10005000C098C29AEDE2F0E02EC0C198C39AE2E3E4
:10006000F0E029C0C298C09AE7E3F0E024C000B3F2
:10007000042309F0E6CFE0E0F0E0DDCFC39AC298B8
:10008000C198C09AE5E4F0E016C0C098C29AEAE4CC
:10009000F0E011C0C398C19AEFE4F0E00CC0C29840
:1000A000C09AE4E5F0E007C000B3042309F4E6CF0A
:1000B000E0E0F0E0C0CF05E003BF02E009BF04ECE0
:1000C00002BFB9CF0FB70F9300E003BF00E009BF35
:1000D0000F910FBF1895000040E1D0CF40E2B1CFA3
:0200E00000001E
:00000001FF
