:020000020000FC
:100000000AC078C0189518951895189565C0189568
:100010001895189518950FED0DBF17E00FEF07BB5A
:10002000222728BB002701BB04E302BB789403E02E
:1000300005BF00E40BBFC49AE0E0F0E000C009B7E0
:1000400001FDFDCFE030D9F3099409B701FDF7CFE9
:10005000E030A9F30994C398C298C19AC09AE2E328
:10006000F0E033C0C098C29AE7E3F0E02EC0C19838
:10007000C39AECE3F0E029C0C298C09AE1E4F0E052
:1000800024C000B3042309F0E6CFE0E0F0E0D7CFCE
:10009000C39AC298C198C09AEFE4F0E016C0C09825
:1000A000C29AE4E5F0E011C0C398C19AE9E5F0E036
:1000B0000CC0C298C09AEEE5F0E007C000B304237C
:1000C00009F4E6CFE0E0F0E0BACF05E003BF02E0DC
:1000D00009BF04EC02BFB3CF0FB70F9300E003BF1B
:1000E00000E009BF0F910FBF1895000040E1D0CF8D
:1000F00040E3B1CF40E100B378940423C9F7F6CFD1
:00000001FF
