:020000020000FC
:100000000AC0A9C0189518951895ADC05BC06AC004
:100010001895189518950FED0DBF0FEF07BB222708
:1000200028BB002701BB04E302BB86D0C49AE0E0F2
:10003000F0E078944DC009B701FDFDCFE030D9F371
:10004000099473E038D0E6E2F0E03AC076E033D0CD
:10005000EBE2F0E035C07CE02ED0E0E3F0E030C031
:1000600079E029D0E5E3F0E02BC000B3042309F0E8
:10007000E8CFE0E0F0E070E01ED0DDCF79E01BD00B
:10008000E3E4F0E01DC07CE016D0E8E4F0E018C046
:1000900076E011D0EDE4F0E013C073E00CD0E2E5BF
:1000A000F0E00EC000B3042309F4E8CFE0E0F0E094
:1000B00070E001D0C0CF08B3007F072B08BB0895C4
:1000C00021D0B9CF0FB70F9325D00F910FBF18953F
:1000D00040E1D4CF40E2B5CF40E100B378940423AF
:1000E000C9F7F6CF0FB70F935CB15535A9F30F9150
:1000F0000FBF189503E309B900E90AB9089500E0B4
:100100000AB9089505E003BF08E802BF09B7026015
:1001100009BF089509B70D7F09BF089505E00EBD19
:100120000FEF0DBD06E00CBD09B7006809BF0895CB
:1001300009B70F7709BF089502E005BF00E40BBFC0
:10014000D9DF089503E005BF00E40BBFD8DF0895B1
:1001500000E00BBF08950FB70F93FADFD0DFDEDFAB
:100160000F910FBF1895E4DFE7DF7894B5CFB4CFD8
:1001700000B30470043011F0E5DF0895DDDF089569
:00000001FF
