:020000020000FC
:100000000AC0ACC0189518951895B0C05CC06DC0FA
:100010001895189518950FED0DBF0FEF07BB222708
:1000200028BB002701BB04E302BB89D0C49AE0E0EF
:10003000F0E0789400C009B701FDFDCFE030D9F3BE
:100040000994C398C298C19AC09AE8E2F0E039C016
:10005000C098C29AEDE2F0E034C0C198C39AE2E3DE
:10006000F0E02FC0C298C09AE7E3F0E02AC000B3E6
:10007000042309F0E6CFE0E0F0E008E1007F08BBF0
:10008000DACFC39AC298C198C09AE8E4F0E019C0E8
:10009000C098C29AEDE4F0E014C0C398C19AE2E5BA
:1000A000F0E00FC0C298C09AE7E5F0E00AC000B3E4
:1000B000042309F4E6CFE0E0F0E008E1007F08BBAC
:1000C000BACF23D0B8CF0FB70F9300E003BF25D02E
:1000D0000F910FBF189540E1D4CF40E2B2CF40E17D
:1000E00000B378940423C9F7F6CF0FB70F935CB130
:1000F0005535A9F30F910FBF189503E309B900E92E
:100100000AB9089500E00AB9089505E003BF08E8B8
:1001100002BF09B7026009BF089509B70D7F09BF83
:10012000089505E00EBD0FEF0DBD06E00CBD09B74B
:10013000006809BF089509B70F7709BF089502E065
:1001400005BF00E40BBFD9DF089503E005BF00E45D
:100150000BBFD8DF089500E00BBF08950FB70F93D2
:10016000FADFD0DFDEDF0F910FBF1895E4DFE7DFA6
:100170007894B5CFB4CF00B30470043011F0E5DF4C
:060180000895DDDF089583
:00000001FF
