:020000020000FC
:100000000AC089C01895189518951895ADC04AC0B2
:100010001895189518959FED9DBF9FEF97BB992751
:1000200098BB992791BB94E392BB90E898B995B798
:1000300090629F7E95BF95E093BF9EBDC49A95E068
:10004000092E91E0192E99E0292E98E0392E9AE098
:10005000492E92E0592E96E0692E94E0792E0027E1
:1000600067D0789450D01CC00E7FBB27AA2722C02F
:100070000160A8E01FC070E16CD0889588948299D7
:100080000894661F603019F06F3F19F0F4CF59D013
:1000900007C006604DD000C000FB36F34EF700C02D
:1000A0008895FECF8CB1853521F49F919F917894EE
:1000B000F3CF189506D013D088951AD05030D1F3CD
:1000C000EFCF00FB36F01D91A83009F00895AA2764
:1000D00008951E91A03009F00895A8E0089598B3FE
:1000E000907F812F8F70982B98BB78E832D008953D
:1000F0000AD000FB26F05FEF05FF50E008955FEFA8
:1001000004FF50E0089590B3006295FD0F7D0061FB
:1001100094FF0F7E089509D023D02DD065E50B7F85
:1001200002609F919F917894A6CF90E09BBF089525
:1001300095B792609E7F95BF90E49BBF066016D0F6
:10014000089595B7936095BF90E49BBF097F13D046
:10015000089592E098BF72BF99B7926099BF0895D1
:1001600099B79D7F99BF0895FBDF189593E399B9DF
:0C01700090E99AB9089590E09AB90895BA
:00000001FF
