:020000020000FC
:100000000AC0A8C0189518951895A8C05AC069C00C
:100010001895189518950FED0DBF0FEF07BB222708
:1000200028BB002701BB04E302BB85D0C49AE0E0F3
:10003000F0E0789409B701FDFDCFE030D9F30994E1
:1000400073E038D0E5E2F0E03AC076E033D0EAE29F
:10005000F0E035C07CE02ED0EFE2F0E030C079E097
:1000600029D0E4E3F0E02BC000B3042309F0E8CF8B
:10007000E0E0F0E070E01ED0DDCF79E01BD0E2E4FC
:10008000F0E01DC07CE016D0E7E4F0E018C076E0B8
:1000900011D0ECE4F0E013C073E00CD0E1E5F0E047
:1000A0000EC000B3042309F4E8CFE0E0F0E070E014
:1000B00001D0C0CF08B3007F072B08BB089521D023
:1000C000B9CF0FB70F9325D00F910FBF189540E10F
:1000D000D4CF40E2B5CF40E100B378940423C9F710
:1000E000F6CF0FB70F935CB15535A9F30F910FBF42
:1000F000189503E309B900E90AB9089500E00AB9BF
:10010000089505E003BF00E102BF09B7026009BF1F
:10011000089509B70D7F09BF089505E00EBD0BEFE7
:100120000DBD00E50CBD09B7006809BF089509B70A
:100130000F7709BF089502E005BF00E40BBFD9DFC8
:10014000089503E005BF00E40BBFD8DF089500E089
:100150000BBF0895FCDFD2DFE0DF189505B7037011
:10016000023011F4EEDF1895E6DF7894B4CF00B3D7
:0E0170000470043011F0E5DF0895DDDF08951E
:00000001FF
