:020000020000FC
:100000000AC0ABC0189518951895AFC05BC06CC0FE
:100010001895189518950FED0DBF0FEF07BB222708
:1000200028BB002701BB04E302BB88D0C49AE0E0F0
:10003000F0E0789400C009B701FDFDCFE030D9F3BE
:10004000099473E038D0E6E2F0E03AC076E033D0CD
:10005000EBE2F0E035C07CE02ED0E0E3F0E030C031
:1000600079E029D0E5E3F0E02BC000B3042309F0E8
:10007000E8CFE0E0F0E070E01ED0DDCF79E01BD00B
:10008000E3E4F0E01DC07CE016D0E8E4F0E018C046
:1000900076E011D0EDE4F0E013C073E00CD0E2E5BF
:1000A000F0E00EC000B3042309F4E8CFE0E0F0E094
:1000B00070E001D0C0CF08E1007F072B08BB089596
:1000C00023D0B9CF0FB70F9300E003BF25D00F9116
:1000D0000FBF189540E1D2CF40E2B3CF40E100B36B
:1000E00078940423C9F7F6CF0FB70F935CB1553559
:1000F000A9F30F910FBF189503E309B900E90AB9F5
:10010000089500E00AB9089505E003BF00E602BFC4
:1001100009B7026009BF089509B70D7F09BF0895A7
:1001200005E00EBD0FEF0DBD06E00CBD09B7006880
:1001300009BF089509B70F7709BF089502E005BF09
:1001400000E40BBFD9DF089503E005BF00E40BBF57
:10015000D8DF089500E00BBF08950FB70F93FADFC3
:10016000D0DFDEDF0F910FBF1895E4DFE7DF789473
:10017000B5CFB4CF00B30470043011F0E5DF0895BB
:04018000DDDF089522
:00000001FF
