:020000020000FC
:100000000AC094C0189518951895189583C018952E
:100010001895189518950FED0DBF17E00FEF07BB5A
:10002000222728BB7894C49AE0E0F0E04FEF06C0A6
:1000300009B701FDFDCFE030D9F30994C398C29808
:10004000C198C09AE5E2F0E05EC0C098C19AEAE2C9
:10005000F0E059C0C198C29AEFE2F0E054C0C298F3
:10006000C39AE4E3F0E04FC04A9541F74FEFC39ADB
:10007000C298C198C098EEE3F0E045C0C398C29A18
:10008000E3E4F0E040C0C298C19AE8E4F0E03BC08D
:10009000C198C09AEDE4F0E036C04A9541F74FEFC1
:1000A000C398C298C19AC09AE7E5F0E02CC0C09806
:1000B000C29AECE5F0E027C0C198C39AE1E6F0E00F
:1000C00022C0C298C09AE6E6F0E01DC04A9541F70A
:1000D0004FEFC39AC298C198C09AE0E7F0E013C00E
:1000E000C098C29AE5E7F0E00EC0C398C19AEAE76B
:1000F000F0E009C0C298C09AEFE7F0E004C04A956A
:1001000041F74FEF9BCF05E003BF02E009BF04ECCE
:1001100002BF8ECF0FB70F9300E003BF00E009BF0F
:0E0120000F910FBF18950000000000000000B6
:00000001FF
