:020000020000FC
:100000000AC0A3C0189518951895BBC062C072C0ED
:100010001895189518950FED0DBF17E00FEF07BB5A
:10002000222728BB002701BB04E302BB67D0BAD05C
:10003000C49AE0E0F0E0789456C009B701FDFDCF26
:10004000E030D9F3099409B701FDF7CFE030A9F307
:100050000994C398C298C19AC09AE0E3F0E033C013
:10006000C098C29AE5E3F0E02EC0C198C39AEAE3D3
:10007000F0E029C0C298C09AEFE3F0E024C000B3DA
:10008000042309F0E6CFE0E0F0E0D7CFC39AC298AE
:10009000C198C09AEDE4F0E016C0C098C29AE2E5BB
:1000A000F0E011C0C398C19AE7E5F0E00CC0C29837
:1000B000C09AECE5F0E007C000B3042309F4E6CFF2
:1000C000E0E0F0E0BACF05E003BF20D000EB02BFD4
:1000D000B4CF0FB70F9300E003BF1CD00F910FBF39
:1000E000189540E1D3CF40E2B4CF40E100B3042300
:1000F000D1F7F7CF5CB15535C1F3189503E309B9D2
:1001000000E90AB9089500E00AB9089509B7026044
:1001100009BF089509B70D7F09BF089509B70068A1
:1001200009BF089509B70F7709BF089502E005BF19
:1001300000E40BBFE3DF089503E005BF00E40BBF5D
:10014000E2DF089500E00BBF089505B703700230A9
:1001500031F005B70370033039F024D0189560E012
:10016000F1DFD1DF06D0189561E0ECDFCCDF01D004
:10017000189505E00EBD0BEF0DBD00E50CBDCEDF03
:100180000895603021F050B3543041F0189550B3C9
:10019000503009F01895C6DFCFDF1895C3DFC6DFF2
:1001A0007894A3CF00B30470043011F0C5DF089534
:0401B000BDDF089512
:00000001FF
