:020000020000FC
:100000000AC0A6C0189518951895AAC056C067C012
:100010001895189518950FED0DBF0FEF07BB222708
:1000200028BB002701BB04E302BB83D0C49AE0E0F5
:10003000F0E0789400C009B701FDFDCFE030D9F3BE
:100040000994C398C298C19AC09AE8E2F0E033C01C
:10005000C098C29AEDE2F0E02EC0C198C39AE2E3E4
:10006000F0E029C0C298C09AE7E3F0E024C000B3F2
:10007000042309F0E6CFE0E0F0E0DDCFC39AC298B8
:10008000C198C09AE5E4F0E016C0C098C29AEAE4CC
:10009000F0E011C0C398C19AEFE4F0E00CC0C29840
:1000A000C09AE4E5F0E007C000B3042309F4E6CF0A
:1000B000E0E0F0E0C0CF23D0BECF0FB70F9300E059
:1000C00003BF25D00F910FBF189540E1D7CF40E275
:1000D000B8CF40E100B378940423C9F7F6CF0FB747
:1000E0000F935CB15535A9F30F910FBF189503E33A
:1000F00009B900E90AB9089500E00AB9089505E0D0
:1001000003BF08E802BF09B7026009BF089509B735
:100110000D7F09BF089505E00EBD0FEF0DBD06E090
:100120000CBD09B7006809BF089509B70F7709BF6B
:10013000089502E005BF00E40BBFD9DF089503E096
:1001400005BF00E40BBFD8DF089500E00BBF0895A2
:100150000FB70F93FADFD0DFDEDF0F910FBF1895D7
:10016000E4DFE7DF7894B5CFB4CF00B30470043098
:0A01700011F0E5DF0895DDDF0895CA
:00000001FF
